:060000000A128A110E280D
:10000800FE00030EF2000408F3000A08F4000A12C6
:100018008A117A290A128A111128F8018312031306
:10002800B101B201B301B401B501B601B701B8011C
:10003800B90183010A128A114B2A33308312031340
:10004800A4000030A5003908AC00AD012C08A000C0
:100058002D08A1006430A2000030A3000A128A1102
:1000680083220A128A11831203132108A700200889
:10007800A6000A128A11B6200A128A1183120313E3
:100088002508B2002408B1000A30A0000030A10001
:100098003208A3003108A2000A128A111F210A128D
:1000A8008A11831203132008AC002C08B8000A3008
:1000B800A4000030A5003208A7003108A6000A12E3
:1000C8008A11B6200A128A11831203132508AF0079
:1000D8002408AE000A30A0000030A1002F08A300B9
:1000E8002E08A2000A128A111F210A128A118312ED
:1000F80003132008AC002C08B7000A30A400003015
:10010800A5002F08A7002E08A6000A128A11B620FB
:100118000A128A11831203132408AC002C08B600B3
:1001280038080A128A110C220A128A118312031340
:10013800AC002C08B50037080A128A110C220A12E2
:100148008A1183120313AC002C08B40036080A1273
:100158008A110C220A128A1183120313AC002C088C
:10016800B300080083120313A901A51FBC28BD28EA
:10017800C428A409A509A40A0319A50AA901A90A5A
:10018800A71FC728C828D128A609A709A60A03199E
:10019800A70A0130F7007708A906AA01AB012408CD
:1001A80025040319D828D9281029A801A80AE7285E
:1001B80001300310A40DA50DFF3E031DDD280130FD
:1001C800F7007708A807A51FEA28EB28DC280130E4
:1001D8000310AA0DAB0DFF3E031DEC2825082702CE
:1001E800031DF82824082602031CFB28FC280329E1
:1001F8002408A6022508031CA703A7022A14013015
:100208000310A50CA40CFF3E031D04290130A8020D
:10021800031D0F291029EB2829080319142915296A
:100228001A29AA09AB09AA0A0319AB0A2B08A500BF
:100238002A08A4000800F70183120313A31F252925
:1002480026292D29A209A309A20A0319A30AF7013D
:10025800F70AA11F302931293629A009A109A00AC6
:100268000319A10A2008210403193B293C296B29F9
:10027800F601F60A4A2901300310A00DA10DFF3E30
:10028800031D40290130F5007508F607A11F4D2907
:100298004E293F2921082302031D54292008220240
:1002A800031C572958295E292008A2022108031C8B
:1002B800A303A30201300310A10CA00CFF3E031DF1
:1002C8005F290130F602031D6A296B294E29770838
:1002D80003196F2970297529A209A309A20A03190C
:1002E800A30A2308A1002208A00008008312031310
:1002F8000C1F7F29802992291F0CF000700C0F39E0
:10030800063A031D882989298C291E088500902909
:100318001E08F0007008B9000C13C0290B1D9529A0
:100328009629C0290B11880183308100AD29350831
:10033800870001308800C02934088700023088000F
:10034800C0293308803E870004308800C029F8019E
:10035800C0297808F000F1017108003A0319B5299D
:10036800AB297008003A03199B29013A0319A029FF
:10037800033A0319A529AB2974088A007308840075
:10038800720E8300FE0E7E0E09006030831603177E
:1003980088008901831603138501870188010330CA
:1003A8008900831203138501870188018901831657
:1003B80003130F088F3960388F000F14831203134B
:1003C8000C13831603130C170B178B178B160B11B3
:1003D80001148114011181118112011283308312D9
:1003E80003138100831603139F139F121F12831296
:1003F80003131F083F3940389F001F08C3391438BA
:100408009F001F141030F500F50B082A00000800A3
:10041800F700222A3F304A2A06304A2A5B304A2A05
:100428004F304A2A66304A2A6D304A2A7D304A2A95
:1004380007304A2A7F304A2A6F304A2A7708F5005F
:10044800F6017608003A03192A2A0E2A7508003A96
:1004580003190E2A013A0319102A033A0319122A1A
:10046800013A0319142A073A0319162A013A0319FB
:10047800182A033A03191A2A013A03191C2A0F3AAF
:1004880003191E2A013A0319202A0E2A08000A1203
:100498008A11C9210A128A11831203139F140A129E
:1004A8008A1121200A128A110A128A11AA220A1212
:1004B8008A11831203139F18622A632A532A1F0C76
:1004C800B000300C0F39063A031D6B2A6C2A712ACA
:1004D8001F08C33914389F00752A1F08C3391838F4
:1004E8009F000F3083120313B000B00B792A7C2AC7
:1004F800831203139F14532A0A128A110E28F50136
:10050800F60183120313201C8A2A8B2A912A2208B7
:10051800F5070318F60A2308F60701300310A20DA1
:10052800A30DFF3E031D922A01300310A10CA00C5D
:10053800FF3E031D992A20082104031DA42AA52A89
:10054800852A7608A1007508A0000800B52AF801D8
:10055800F80AC82A0230F5007508F800C82AF80118
:10056800C82A7808F500F6017608003A0319BD2A6A
:10057800B32A7508003A0319AB2A013A0319AE2ABF
:0A058800033A0319B32AB32A08004E
:04400E00D420FF3F7C
:00000001FF
